:030000000200E912
:10009B000214A20261481200F8B900030200E3E463
:1000AB00900F0078AB79018002F0A3D8FCD9FA90BD
:1000BB000FAAAA82AB839000FB787079058015E4B8
:1000CB0093A3AC82AD838A828B83F0A3AA82AB838A
:1000DB008C828D83D8E9D9E7122CB5123EB975D035
:1000EB00007581BF75100075110F0200A1790122F7
:1000FB00012811390F434300401C4600007A44008D
:10010B0000003F0000000020202A2A20200A0020A7
:10011B0025322E31660A00494E5641500A002020E6
:10012B00202020202020200A3230205F5F2020203A
:10013B00200A2020202020202020200A20202020E0
:10014B0020202020200A3138205F5F202020200A29
:10015B002020202020202020200A202020202020AA
:10016B002020200A3136205F5F202020200A20200B
:10017B00202020202020200A20202020202020208A
:10018B00200A3134205F5F202020200A20202020ED
:10019B0020202020200A2020202020202020200A80
:1001AB003132205F5F202020200A202020202020B9
:1001BB002020200A2020202020202020200A31303F
:1001CB00205F5F202020200A2020202020202020BC
:1001DB00200A2020202020202020200A2038205FE9
:1001EB005F202020200A2020202020202020200AF1
:1001FB002020202020202020200A2036205F5F2076
:10020B002020200A2020202020202020200A20200F
:10021B00202020202020200A2034205F5F20202057
:10022B00200A2020202020202020200A20202020EF
:10023B002020206D410A0000FF000000FFFFFFFFA0
:10024B000000C0410000C0C2D0E5AB3B0100A041A3
:10025B009A9979407F000000DF01000057000000F1
:10026B000100000014000000DE0100008F0F1027BA
:10027B000000102700001027000010270000102797
:10028B000000102700001027000010270000102787
:10029B000000102700001027000010270000102777
:1002AB0000001027000010270000102700000E0090
:1002BB00000000000000005C0000000000060006CB
:1002CB00000000287C287C28005C54FE54740044F9
:1002DB002010084400285454205000060000000051
:1002EB000038440000000044380000000002070200
:1002FB0000000010107C101000C000000000001067
:10030B00101010100040000000000060100C0000E6
:10031B00007C64544C7C00487C40000000645454C6
:10032B00544800445454546C003C20702020005C12
:10033B0054545424007C5454547400040464140C1A
:10034B00007C5454547C005C5454547C0044000096
:10035B00000000C40000000000102844000000282A
:10036B0028282828004428100000000804540800FE
:10037B00007C4454545C007C2424247C007C545426
:10038B00546C007C44444444007C44444438007C1A
:10039B0054545444007C14141404007C444454748A
:1003AB00007C1010107C0044447C444400604040AE
:1003BB00447C007C10102844007C40404040007C72
:1003CB000810087C007C0810207C0038444444381A
:1003DB00007C14141408003C2464243C007C14148A
:1003EB001468005C545454740004047C0404007CB2
:1003FB004040407C000C3040300C003C4030403CD6
:10040B00004428102844000C1060100C0044645465
:10041B004C44007C44000000000C106000000044C1
:10042B007C00000000000100010000404040404003
:10043B00400001000000007C2424247C007C5454E8
:10044B00546C007C44444444007C44444438007C59
:10045B0054545444007C14141404007C44445474C9
:10046B00007C1010107C0044447C444400604040ED
:10047B00447C007C10102844007C40404040007CB1
:10048B000810087C007C0810207C00384444443859
:10049B00007C14141408003C2464243C007C1414C9
:1004AB001468005C545454740004047C0404007CF1
:1004BB004040407C000C3040300C003C4030403C15
:1004CB00004428102844000C1060100C00446454A5
:1004DB004C4400107C440000006C00000000004401
:1004EB007C1000000002010201000000000000006F
:1004FB0000000000000000FFFFFF0000000164008F
:10050B000000FFFFFFFFFF000000060018002600A1
:10051B008000DBFF83FF00000034FFFF7F7F0000C4
:10052B008000686A6C747A4C006E616E004E414EAE
:10053B0000696E6600494E46003000FFFF00000068
:10054B000020411C00000097750000A086010000F0
:10055B0000803F0A00000020BCBE4C0000807FE002
:10056B0066701008A3E066700A08A3E066700408C2
:10057B00A3E06622C3E7960809E7960809E7960801
:10058B0009E796A2D265D03322C3E09608A3E09682
:10059B0008A3E09608A3E096A2D265D03322C3E766
:1005AB00960809E7960809E7960809E796220808CE
:1005BB0008E630E711120EBC1205D1080808C64434
:1005CB0080C618181822181818E9799EC608CAC6CA
:1005DB0008CBC608CCC6C370207996CACBCC701991
:1005EB00798ECBCC70137986CC700EF9802ACA33F6
:1005FB00CACB33CBCC33CC331930E7F2CCCBCA33A9
:10060B0050147004EA30E00DE4CA3ACACB3BCBCCB1
:10061B003CCC500209C3E913C6CC182313C6CB1824
:10062B00C6CA18C6F92212067C30F0391206C180F0
:10063B003412067C20F01430E72B74FFFCFBFA74A9
:10064B007F8022E4FCFBFA7480801AB48008BC0023
:10065B00F2BB00EF800F50EBF9E4C39AFAE49BFB7B
:10066B00E49CFCE499C6CC18C6CB18C6CA18C6F9CC
:10067B0022E4C9C608CAC608CBC6D3330308CCC606
:10068B003392F0C3947F402E94184019C9B90704D4
:10069B00CACBCC225025C309CA33CACB33CBCC33FC
:1006AB00CC33D9F422F4600DC9CCC313CB13CBCA12
:1006BB0013CAD9F6CC22E4FCFBFA2214FCFBFA2277
:1006CB00E6C33318461846184622E7C333194719B1
:1006DB0047194722181818E6084608700AE608C397
:1006EB00337005E633F4220822191919E709470973
:1006FB00700AE709C3337005E733F4220922E608D1
:10070B004608C3134608336002E633F422E7094771
:10071B0009C3134709336002E733F4221207096058
:10072B001C12071860171206CB70071206D5700142
:10073B00D322C0D01206D57006D0D0B322C3223339
:10074B00D0D0501430E0F6C3E7960809E7960809B5
:10075B00E7960809E796B32220E0D5E6970809E665
:10076B00970809E6970809E697B322120709601B59
:10077B0012071860161206CB70071206D5600CB361
:10078B0022C0D01206D57005D0D022C32233D0D0D0
:10079B00501330E0EBC3E7960809E7960809E79694
:1007AB000809E7962220E0E4E6970809E69708098E
:1007BB00E6970809E6972200120709604F120718FF
:1007CB006012E7548066F61206DF70111206D570C0
:1007DB003B090909F4F618F618F618F6221206F476
:1007EB0070151206CB08080860EAE6447FF6187607
:1007FB008018E4F618F6221206CB60161206D57096
:10080B0012E4F608F608F608E65480F6090909180A
:10081B00181822EAC0E0EBC0E0ECC0E0EDC0E0E667
:10082B0087F0A4FBACF008E687F0A42CFCE435F0D1
:10083B00FA1809E687F0A42C4B60027401CA35F054
:10084B00FCE433FB09E687F0D2F7A42CCB35F0FCA4
:10085B001908E687F0A42BCC35F0FBE433FD08191F
:10086B00E687F0D2E7A42C4ACB35F0CD3400FC0957
:10087B00E687F0D2E7A42DCC35F0FDE433FA091866
:10088B00E687F0D2F7A42CCD35F0CA3400FC08E68D
:10089B0087F0D2E7D2F7A42ACC35F07A7E20E70B8B
:1008AB000ACB33CBCD33CDCC33CC33CB33501470CD
:1008BB0004ED30E00ED2F1E4CD3DCDCC3CCC3B5041
:1008CB0005DA05C2F1EB547FC63308E63392F0FB31
:1008DB00E73309E733C39A502D2B70190C0D4C4D90
:1008EB0070151806E608C333700D20F10AA2F01339
:1008FB00F6E418800B4024E4F630F002768018F60C
:10090B0018F618F68024D33B14501074FFA2F01382
:10091B00F6187680E418F618F6800FA2F013F61886
:10092B00E63303F618ECF618EDF6D0E0FDD0E0FC5C
:10093B00D0E0FBD0E0FA22120718604612070960DC
:10094B003DE9687008F618F618F618F622748067F9
:10095B00F7120976090909748067F72212070960F3
:10096B001D1207187005191919801A1206DF701F4E
:10097B001206F4C37003E6673319191940071818E8
:10098B00182208080874FFF618F618F618F6221243
:10099B0006F460171206D5702192F01206CB70196F
:1009AB00501720F014080808090909E7F61819E789
:1009BB00F61819E7F61819E7F6221206CB60E6E8E7
:1009CB0069701F0808E62480F608E436F618547F91
:1009DB00B47F0CE654806007F6E418F618F622187C
:1009EB001822E9C6CC08C6CD08C6CE08C6CFC0E0D3
:1009FB00E8C0E0EAC0E0EBC0E009E9F809E7FA0972
:100A0B00E7FBE6F918E6F8C3EC98ED99EE9AEBC222
:100A1B00E7F5F0EFC2E795F0500E600CEBCFFBEA79
:100A2B00CEFAE9CDF9E8CCF8EAA2E7D2E7FAEB3354
:100A3B00FB13F5F0EEA2E7D2E7FEEF33FFC5F013A1
:100A4B00A2E730E601B313C5F0C3C0E0C0F07F00EE
:100A5B00C39BFB605B9418600C401AD0E023F9D069
:100A6B00E0F8020B458AF0E9486003D2F0E4AFF0FE
:100A7B00FAF9F8803BEB30E40D89F0EA6003D2F031
:100A8B00E4AFF0F9CAF8EB30E30D88F0EF6002D277
:100A9B00F0AFF0E4CAC9F8EB54076014FBC3EA13D8
:100AAB00FAE913F9E813F8EF135002D2E0FFDBED8C
:100ABB00D0E0C0E030E739C3E49FFFF5F0EC98FCE1
:100ACB0042F0ED99FD42F0EE9AFE42F0D0E0F9D003
:100ADB00E0F8E5F0607AE923F9EE20E742D80280EE
:100AEB0067C3EF33FFEC33FCED33FDEE33FE80EAEF
:100AFB00EC28FCED39FDEE3AFED0E023F9D0E0F81E
:100B0B004002801BC3EE13FEED13FDEC13FCEF1341
:100B1B005002D2E0FF08B800067F7F74FF802EEFF3
:100B2B003350178CF020F00260100CBC000C0DBD84
:100B3B0000080EBE000408E860DFE933E813FFEE9F
:100B4B002313FE4F4D4C8008E95480FFE4FEFDFC5F
:100B5B00EE33EF33F47004FCFD7E80D0E0FBD0E08D
:100B6B00FAD0E0F8D0E0CFC618CEC618CDC618CC58
:100B7B00C6F92212070970041818182212071870E8
:100B8B000D74FFF61819F61819F61819F622E75412
:100B9B008066F61206CB700F1206D570F014F608AD
:100BAB00F608F608F680D11206D5700CF608F60892
:100BBB00768008E6447F80EC1206F7700C1206E292
:100BCB0060BFE65480F6E480BB1206E2700519198B
:100BDB001980A5E869700C763F18768018F618F620
:100BEB00E8F922E6CDC0E018ECC0E0E633CD33CD1A
:100BFB00D313F6E719FCE7191933CC33C3947F40B1
:100C0B000ECD9D502408E65480F6E418F6800FF4C0
:100C1B00043D14501408E6447FF6187680E418F669
:100C2B0018F6D0E0FCD0E0FD22CCD313CCFD18E4B9
:100C3B00C6CBC0E018E4C6CAC0E00808ED08C6334E
:100C4B00E613F618E433C675F003C3CA97CA09CB8B
:100C5B0097CB199C40047D08802EBD0003020D2705
:100C6B0016B6FF050606081618C3CA33CACB33CB14
:100C7B0033CA27CA09CB37CB193CC37D08803E1832
:100C8B007D0820E75CC633C6CA33CACB33CB33DD12
:100C9B00F1D5F0EB30E77BCA97CA09CB974ACB1952
:100CAB009C406F4B7025E620E0218066187D08C3C1
:100CBB00CA97CA09CB97CB199CD3C633C6CA33CABA
:100CCB00CB33CB3350C9DDE7D5F0E1D3E4C636C621
:100CDB0008C636C608C636C608C636C618181880E3
:100CEB0031C3CA97CA09CB97CB199CB34097C6336C
:100CFB00C6CA33CACB33CB33DD34D5F02EC6A2E014
:100D0B00C640C8CA27CA09CB37194A70BECB3CB4F8
:100D1B0080B90808E63308E633601F181818D0E0CE
:100D2B00FAD0E0FBD0E0FCD0E0FD22187D08CA270A
:100D3B00CA09CB37CB193CD3808013F618E4B67FA6
:100D4B0011F618B6FF0EF618C60470D20808768096
:100D5B0080CAF618F618F680C5080808EAC0E0EB5A
:100D6B00C0E086F0E7A4FA180986F0E7A42AFA187F
:100D7B000986F0E7A42AFA180986F0E7A42AFA19DB
:100D8B0086F0E7A4FBE5F02AFA190886F0E7A42B16
:100D9B00FBE5F03AFA190886F0E7A42BFBE5F03AED
:100DAB00FA18180986F0E7A4C5F02BFBE43AFA19F8
:100DBB0008E7C5F0C6A426F6E5F03BFBE43AFA18C3
:100DCB0086F0E7A4F6E5F00826F6E43B08F6E43AED
:100DDB0008F6D0E0FBD0E0FA22E4CFC0E0E4CEC0CE
:100DEB00E0E4CDC0E0E4CCC0E075F020C3E633F620
:100DFB0008E633F608E633F608E633F6181818EC6F
:100E0B0033FCED33FDEE33FEEF33FFC3EC9709ED0F
:100E1B009709EE9709EF97191919400FFFEC97FCFB
:100E2B0009ED97FD09EE97FE191906D5F0BEECF703
:100E3B0009EDF709EEF709EFF7191919D0E0FCD016
:100E4B00E0FDD0E0FED0E0FF22120EBF1818181202
:100E5B000DE4120EAB19191922120EAB1919190840
:100E6B000808E618181820E7E0120DE4120EBF1858
:100E7B00181822090909E719191920E7DC080808CD
:100E8B00E618181820E703020DE4120EBF18181805
:100E9B00120DE4120EBF181818120EAB19191922E5
:100EAB00E4C397F709E497F709E497F709E497F791
:100EBB0022181818E4C396F608E496F608E496F69A
:100ECB0008E496F6226017080808C6A2E713C618AE
:100EDB00C613C618C613C618C613C6D5E0E922E654
:100EEB0027F60809E637F60809E637F60809E63764
:100EFB00F622E026F608A3E036F608A3E036F6085D
:100F0B00A3E036F622E056F608A3E056F608A3E077
:100F1B0056F608A3E056F622E0F608A3E0F608A37F
:100F2B00E0F608A3E0F622E6F008A3E6F008A3E655
:100F3B00F008A3E6F022CAC0E0E6F0A308DAFAD084
:100F4B00E0FA22CAC0E0E0A3C582CCC582C583CD3E
:100F5B00C583F0A3C582CCC582C583CDC583DAE634
:100F6B00D0E0CA22C3E498F8E499F9120FB08026B6
:100F7B00C3E49AFAE49BFBE920E7E9120FB0E4988B
:100F8B00F8E499F922C3E498F8E499F9120FB0E464
:100F9B0098F8E499F9C3E49AFAE49BFB22EB20E777
:100FAB00CFE920E7E0B90010BB0008E88AF084F82D
:100FBB00AAF022E4FBC8FA22EB70227B10C833C8DC
:100FCB00C933C9335007C39AC3DBF280069A500169
:100FDB002ADBEAC833F4C8C933F4C9FA2275F0081E
:100FEB00E4C833C8C933C933C99AC99B5004C92A49
:100FFB00C93BD5F0ECFBC833F4C8E4C9FA22600D49
:10100B0008C6A2E713C618C613C6D5E0F322600CB8
:10101B0008C6C313C618C613C6D5E0F42270042243
:10102B00600D18C6C333C608C633C6D5E0F4182204
:10103B00251010AF08F510400215118008F510406F
:10104B00021511D2AF22C0D0251010AF08F51050E9
:10105B000205118008F51050020511D2AFD0D02235
:10106B002510F58210AF08F510400215118008F518
:10107B001040021511D2AF851183222510F582E4A1
:10108B003511F58322E4732510C582C0E0E51134D8
:10109B00FFC583C0E0E510C3958224F9F8E4C5A829
:1010AB00858311858210C5A8E8CEF0A3E520F0A3B7
:1010BB007808E608F0A3DEFAEFF0A3E58124FBF84D
:1010CB00E608F0A3E608F0A30808E608F0A3E60894
:1010DB00F0A315811581D0E0FED0E0F815811581C4
:1010EB00E8C0E0EEC0E022851183851082E0A3FE0C
:1010FB00E0A3F5207808E0A3F608DFFAE0A3FFE011
:10110B00A3C0E0E0A3C0E0E0A3C0E0E0A3C0E0E444
:10111B00C5A8858210858311C5A8D083D08222C033
:10112B00D02510C582C0E0E51134FFC583C0E0E5D2
:10113B0010C3958224F310AF08858311858210802C
:10114B0008858311858210D2AFC8F0A3E9F0A3EA1A
:10115B00F0A3EBF0A37908E709F0A3D8FAECF0A31E
:10116B00EDF0A3EEF0A3EFF0A3D0E0F0A3D0E0F00E
:10117B00A3D0E0F0A3E520F0A3E5F0F0A3228511C6
:10118B0083851082E0C0E0A3E0F9A3E0FAA3E0FBC3
:10119B00A37808E0F608A3DFFAE0FCA3E0FDA3E0E8
:1011AB00FEA3E0FFA3E0C0E0A3E0C0E0A3E0F5D026
:1011BB00A3E0F520A3E0A3F5F0E4C5A88583118592
:1011CB008210C5A8D082D083D0E0F8D0E03274046E
:1011DB008006740280027401C0E0F40412106BD01C
:1011EB00E0120F41227404800474028000CCC0E032
:1011FB00EDC0E0E510C39CCCAD1150011D10AF0646
:10120B008C108D1180068C108D11D2AF120F4ED019
:10121B00E0FDD0E0FC22D083D082C5F0E493A3C5DF
:10122B00F0C395F0F5F0E493A3C395F04005E5F01A
:10123B00048001E475F002A42582F582E5F0358384
:10124B00F583E493A3C0E0E493C0E022D083D08283
:10125B00CCC0E0E493A360061212811470FAE493FD
:10126B00A360061212A01470FAD0E0FCE493A3C0A2
:10127B00E0E493C0E022C0E0E493A3D39C5010E4DD
:10128B0093A3C39C400AD0E0D0E0D0E0021274A339
:10129B00A3A3D0E022C0E0E493A36C7009D0E0D00C
:1012AB00E0D0E0021274A3A3D0E022C082C083E599
:1012BB0084FAC2087400900F22F075840143F84140
:1012CB00E5F875DA0375D95E75D8C075DA2175D86E
:1012DB001F43F806E5F853F8BEE5F88A84D083D0AF
:1012EB008222E584FA75840FE5C8F4543FF98A84A9
:1012FB0022C082C083E584FA75840175DA0975D939
:10130B000075D8BC75DA0C75D90075D80075DA0D77
:10131B00E9121221010453132D1335133D134513F9
:10132B004D1375D98075D804801E75D98A75D8A0D0
:10133B00801675D98A75D8C0800E75D98A75D8E094
:10134B00800675D98A75D8F075DA0E75D90175D8FE
:10135B008875DA0889D88A84D083D08222C082C06B
:10136B0083E584FA75840175DA0975D90075D8B0EF
:10137B0075DA0C75D90075D80075DA0DE9121221E2
:10138B000104BF139913A113A913B113B91375D981
:10139B00A075D804801E75D9AA75D8A0801675D9EA
:1013AB00AA75D8C0800E75D9AA75D8E0800675D9F4
:1013BB00AA75D8F075DA0E75D90075D88875DA0864
:1013CB0075D90089D88A84D083D08222E584FA75B6
:1013DB00840175DA0975D8FF75DA0C75D90075D8E3
:1013EB000075DA0D75D90075D80075DA0E75D90050
:1013FB0075D80078017900800E75DA08E8F5D8E821
:10140B002401F8E93400F9C3E89421E99400A2D24D
:10141B0065D03340E48A842274F7121092E584FB82
:10142B0075840175DA0975D90075D88775DA0F904F
:10143B000F12E0F5D9900F11E0F5D875DA10900F77
:10144B0014E0F5D9900F13E0F5D875DA11900F165B
:10145B00E0F5D9900F15E0F5D875DA12900F18E07A
:10146B00F5D9900F17E0F5D875DA0889D87A00808E
:10147B00197400C0E08A08750900E5082411F5828B
:10148B00E509340FF583D0E0F00AEAC3940840E194
:10149B008B847F020210F2C0E074F212112AE584F1
:1014AB00FF758401E5C0FEEEA2E4500B74EF55C04E
:1014BB004407F5C01214E7EEA2E3500874F755C0C9
:1014CB004407F5C074075E600C74075E6407600523
:1014DB0043C007E5C08F847F01021189C082C0839E
:1014EB00E584FB7A0075840175DA48E5D8FCC2AF58
:1014FB0074016C601774026C601274046C600D7470
:10150B000C6C600874106C60030215D3EC1212574C
:10151B000005012E150232150436150C3A15103E36
:10152B001540157A01800E7A02800A7A0380067ABA
:10153B000380027A0575DA208AD875DA27E5D99007
:10154B000F02F0E5D8900F01F075DA28E5D9900F6E
:10155B0004F0E5D8900F03F075DA29E5D9900F0662
:10156B00F0E5D8900F05F075DA2AE5D9900F08F061
:10157B00E5D8900F07F0C208EA1212210104D31527
:10158B009515BD15C515D315CD15900F01E0543F1D
:10159B00FA900F00E06A7030900F02E05460900FE9
:1015AB0022F07400900F25F0D2087408900F24F0ED
:1015BB0080167408900F24F0800E7400900F24F0A6
:1015CB0080067408900F24F0ECA2E350497A04755E
:1015DB00DA208AD875DA27E5D9900F0AF0E5D8908A
:1015EB000F09F075DA28E5D9900F0CF0E5D8900FBC
:1015FB000BF075DA29E5D9900F0EF0E5D8900F0DA9
:10160B00F075DA2AE5D9900F10F0E5D8900F0FF0AE
:10161B007410900F24F0740E6C6005741E6C705D6A
:10162B007401900F23F0804C75DA20900F23E0F5B6
:10163B00D875DA27E5D9900F1AF0E5D8900F19F085
:10164B0075DA28E5D9900F1CF0E5D8900F1BF075D3
:10165B00DA29E5D9900F1EF0E5D8900F1DF075DA59
:10166B002AE5D9900F20F0E5D8900F1FF0900F23AB
:10167B00E02401F0900F23E0C3940540ABD2AF8B75
:10168B0084D083D082227A00E584FC75840F800895
:10169B000BEBC3940A40F90AA2864041EAC3940FAC
:1016AB00503BC2877B0080010BEBC394FF40F9D208
:1016BB0087785879028008E824FFF8E934FFF9A20B
:1016CB0087400A740068700374006970EA740068DC
:1016DB0070037400697002D3227B0080B4740F6AAC
:1016EB007002D322D287D2868C84C322E9FB790085
:1016FB007C0080080AEAC3941440F90CECC39408EC
:10170B005033C2877A0080010AEAC3940A40F9D2A7
:10171B00867A0080010AEAC3940A40F9D287A2862E
:10172B005005D3E992E0F9ECC394075004E9C333B5
:10173B00F97A0080C0C2877A0080010AEAC3940A52
:10174B0040F9EB7004C2868002D2867A0080010ACF
:10175B00EAC3940A40F9D2877A0080010AEAC3945B
:10176B001440F9C287227B0080080AEAC394144014
:10177B00F90BEBC39408502DC2877A0080010AEA5B
:10178B00C3940A40F9E9A2E74004C2868002D286DC
:10179B007A0080010AEAC3940A40F9D287E9C3337D
:1017AB00F97A0080C6C2877A0080010AEAC3940ADC
:1017BB0040F9D2867A0080010AEAC3940A40F9D232
:1017CB0087A286E492E0F97A0080010AEAC39414B6
:1017DB0040F9C2872274F2121092890A8A0B8B0C81
:1017EB008C088D09740E121086E0FFE584F50E75DA
:1017FB00840FD287D2867E0080010EEEC3941440F4
:10180B00F9C2867E0080010EEEC3941440F9C287A4
:10181B00A90A121771E964017004D3021912A90BFA
:10182B00121771E964017004D3021912A90C121773
:10183B0071E964017004D3021912C2877E00800122
:10184B000EEEC3940A40F9D2867E0080010EEEC3E1
:10185B00940A40F9D2877E0080010EEEC3941440A7
:10186B00F9C2867E0080010EEEC3941440F9C28744
:10187B007401250AF9121771E964017004D3021976
:10188B00127E00801B79001216F7E9850882850904
:10189B0083F0850882850983A38582088583090ED9
:1018AB008E0A750B008F0C750D0074FF250CF874E8
:1018BB00FF350DF9C3E50A98E50B99A2D265D03334
:1018CB0040C379011216F7E9850882850983F0C2B6
:1018DB00877E0080010EEEC3940A40F9C2867E001B
:1018EB0080010EEEC3940A40F9D2877E0080010E70
:1018FB00EEC3941440F9D2867E0080010EEEC394A1
:10190B001440F9850E84C37F070210F274F4121091
:10191B00928A0A8B0BECFEEDFF740C121086E0F52D
:10192B000CE584F50975840FD287D2867508008083
:10193B00020508E508C3941440F7C28675080080B9
:10194B00020508E508C3941440F7C287121771E922
:10195B0064017004D30219F9A90A121771E9640121
:10196B007004D30219F9A90B121771E96401700302
:10197B00D3807B75080080148E828F83E0F9121759
:10198B00718E828F83A3AE82AF830508E508C39562
:10199B000C40E5C28775080080020508E508C39472
:1019AB000A40F7C28675080080020508E508C39453
:1019BB000A40F7D28775080080020508E508C39432
:1019CB001440F7D28675080080020508E508C39419
:1019DB001440F7780079008008E82401F8E9340016
:1019EB00F9C3E89428E9942340EF850984C37F0564
:1019FB000210F21216912274F7121092900FAFE0B0
:101A0B00C3943D502A900FAFE0F50878081211E10E
:101A1B00900FABE0FCA3E0FD7B007A0079AA1217D4
:101A2B00E07401121051E492E0900F26F0806D905B
:101A3B000FAFE0C3943D405E900FAFE0C39478507E
:101A4B005575083C78081211E1900FABE0FCA3E050
:101A5B00FD7B007A0079AA1217E07401121051E491
:101A6B0092E0900F26F0900FAFE024C4F5087808B1
:101A7B001211E1900FABE0243CFCA3E03400FD7BA2
:101A8B00007A0179AA1217E07401121051E492E066
:101A9B00900F26F080067401900F26F0900FAFE0A8
:101AAB00F8790074FE28FC74FF39FD900FABE0FA57
:101ABB00A3E0FB1220BD8A088B09A808A909901185
:101ACB0069E0687003A3E0697004D2F08002C2F091
:101ADB00A2F0E492E0900F7CF0900F26E0F4A2E0ED
:101AEB00E492E0C0E0900F7CE0FAD0E05A601090F6
:101AFB000F36E0C2E1F07400900F28F0021E8BC28B
:101B0B00AF121691D2AF900FAFE0C3943D502A9015
:101B1B000FAFE0F50878081211E1900FABE0FCA3D2
:101B2B00E0FD7B007A0079AA1217E07401121051C4
:101B3B00E492E0900F26F0806D900FAFE0C3943DE0
:101B4B00405E900FAFE0C39478505575083C780811
:101B5B001211E1900FABE0FCA3E0FD7B007A007962
:101B6B00AA1217E07401121051E492E0900F26F0C4
:101B7B00900FAFE024C4F50878081211E1900FAB79
:101B8B00E0243CFCA3E03400FD7B007A0179AA122F
:101B9B0017E07401121051E492E0900F26F08006CA
:101BAB007401900F26F0900FAFE0F8790074FE28C7
:101BBB00FC74FF39FD900FABE0FAA3E0FB1220BDE4
:101BCB008A088B09A808A909901169E0687003A31A
:101BDB00E0697004D2F08002C2F0A2F0E492E090CF
:101BEB000F7CF0900F26E0F4A2E0E492E0C0E090CE
:101BFB000F7CE0FAD0E05A6010900F36E0C2E1F0B3
:101C0B007400900F28F0021E8BC2AF121691D2AF48
:101C1B00900FAFE0C3943D502A900FAFE0F50878DA
:101C2B00081211E1900FABE0FCA3E0FD7B007A0002
:101C3B0079AA1217E07401121051E492E0900F266A
:101C4B00F0806D900FAFE0C3943D405E900FAFE01E
:101C5B00C39478505575083C78081211E1900FAB7E
:101C6B00E0FCA3E0FD7B007A0079AA1217E0740177
:101C7B00121051E492E0900F26F0900FAFE024C4C5
:101C8B00F50878081211E1900FABE0243CFCA3E0BF
:101C9B003400FD7B007A0179AA1217E0740112104F
:101CAB0051E492E0900F26F080067401900F26F01D
:101CBB00900FAFE0F8790074FE28FC74FF39FD90AB
:101CCB000FABE0FAA3E0FB1220BD8A088B09A80832
:101CDB00A909901169E0687003A3E0697004D2F060
:101CEB008002C2F0A2F0E492E0900F7CF0900F26FD
:101CFB00E0F4A2E0E492E0C0E0900F7CE0FAD0E0E8
:101D0B005A6010900F36E0C2E1F07400900F28F08B
:101D1B00021E8B9011287410F0A37427F090112AD7
:101D2B007400F0A37400F090112C7410F0A37427BE
:101D3B00F090112E7400F0A37400F0901130741019
:101D4B00F0A37427F09011327400F0A37400F0909C
:101D5B0011347410F0A37427F09011367400F0A3B3
:101D6B007400F09011387410F0A37427F090113AAE
:101D7B007400F0A37400F090113C7410F0A374275E
:101D8B00F090113E7400F0A37400F09011407410A9
:101D9B00F0A37427F09011427400F0A37400F0903C
:101DAB0011447410F0A37427F09011467400F0A343
:101DBB007400F09011487410F0A37427F090114A3E
:101DCB007400F0A37400F090114C7410F0A37427FE
:101DDB00F090114E7400F0A37400F0901150741039
:101DEB00F0A37427F09011527400F0A37400F090DC
:101DFB0011547410F0A37427F09011567400F0A3D3
:101E0B007400F09011587410F0A37427F090115ACD
:101E1B007400F0A37400F090115C7410F0A374279D
:101E2B00F090115E7400F0A37400F09011607410C8
:101E3B00F0A37427F09011627400F0A37400F0907B
:101E4B0011647410F0A37427F09011667400F0A362
:101E5B007400F07409901168F07C417D007A287B46
:101E6B00111220BD901169EAF0A3EBF0900F36E050
:101E7B00D2E1F0900F28E02401F07401900F26F0CE
:101E8B00900F26E0A2E07F020210F274F71210927C
:101E9B00900FAFE0F8790074FE28FC74FF39FD90C9
:101EAB000FABE0FAA3E0FB1220BD901169EAF0A39F
:101EBB00EBF0900FAFE0C3943D502A900FAFE0F5DD
:101ECB000878081211E1900FABE0FCA3E0FD7B005A
:101EDB007A0079AA1219177401121051E492E0904A
:101EEB000F26F0806D900FAFE0C3943D405E900FD6
:101EFB00AFE0C39478505575083C78081211E19007
:101F0B000FABE0FCA3E0FD7B007A0079AA12191756
:101F1B007401121051E492E0900F26F0900FAFE095
:101F2B0024C4F50878081211E1900FABE0243CFCB7
:101F3B00A3E03400FD7B007A0179AA121917740112
:101F4B00121051E492E0900F26F080067401900F6E
:101F5B0026F0900F26E0600302209E900FB0E0C3A6
:101F6B00943D502A900FB0E0F50878081211E190DB
:101F7B000FADE0FCA3E0FD7B007A0079AA1217E01D
:101F8B007401121051E492E0900F26F08065900FCF
:101F9B00B0E0C3943D405C900FB0E0C394785053D5
:101FAB0075083C78081211E1900FADE0FCA3E0FD41
:101FBB007B007A0079AA1217E07401121051E49297
:101FCB00E0900F26F0900FB0E024C4F508780812CB
:101FDB0011E1900FADE0243CFCA3E03400FD7B004D
:101FEB007A0179AA1217E07401121051E492E09071
:101FFB000F26F0900FB0E0F8790074FE28FC74FF08
:10200B0039FD900FADE0FAA3E0FB1220BD8A088BDF
:10201B0009A808A909900F7AE0687003A3E069701A
:10202B0004D2F08002C2F0A2F0E492E0900F7CF0B8
:10203B00900F26E0F4A2E0E492E0C0E0900F7CE089
:10204B00FAD0E05A6037900F36E0C2E1F07400909E
:10205B000F28F0900F7AE0F8A3E0F9901169E0688F
:10206B007003A3E0696040900F36E0D2E1F0900F6F
:10207B0028E02401F07401900F26F0802A900F368F
:10208B00E0D2E1F0900F28E02401F07401900F26CC
:10209B00F08014900F36E0D2E1F0900F28E024018D
:1020AB00F07401900F26F0900F26E0A2E07F020261
:1020BB0010F274F71210928A828B8378FF79FF7A71
:1020CB000080010A8A08750900C3E5089CE5099D93
:1020DB005037E0F508A3750900E50868F8E50969CC
:1020EB00F97B008008E9C313F9E813F80BEBC394F1
:1020FB000850D0E8A2E050EDE9C313F9E813F874E7
:10210B000168F874A069F980E374FF58FA740059F8
:10211B00FBEA75F000A4CAACF075F001A42CFC75B9
:10212B00F000EBA42CFBE4C92AFAE93BFB7F02028B
:10213B0010F2C082C0831213D779011212FC7902FC
:10214B001213687903121368790412136879051254
:10215B0013681212B61212EDE9900F00F075E7201A
:10216B00D083D08222C082C083E91212210103B432
:10217B0021842190219C21AA21900F00E0543F90B3
:10218B000F11F08024900F00E0543F900F11F0805E
:10219B0018900F00E0543F4440900F11F0800A90CC
:1021AB000F00E044C0900F11F0901168E0541F90A5
:1021BB000F22FCE02C900F12F0900F36E0540F60C2
:1021CB0007900F12E0D2E7F07400900F13F08A82A1
:1021DB008B83A3A3E0900F13F07400900F14F08A7D
:1021EB00828B83A3A3A3E0900F14F07400900F15C0
:1021FB00F08A828B83A3A3A3A3E0900F15F0740046
:10220B00900F16F08A828B83A3A3A3A3A3E0900F56
:10221B0016F07400900F17F08A828B83A3A3A3A3ED
:10222B00A3A3E0900F17F07400900F18F08A828B25
:10223B0083A3A3A3A3A3A3A3E0900F18F0121423CB
:10224B00D083D08222C082C0837400900F11F09093
:10225B000F00E0900F11F07400900F12F0901168C6
:10226B00E0541FC0E0900F22E05460FAD0E04A9097
:10227B000F12F0900F36E0540F6007900F12E0D260
:10228B00E7F07400900F13F0900F29E0C394044013
:10229B0009900F13E04403F0800B900F29E0FA90A4
:1022AB000F13E04AF0900F27E0C394044009900FFE
:1022BB0013E0440CF08011900F27E0540333335498
:1022CB00FCFA900F13E04AF0900F28E0C3940440FF
:1022DB0009900F13E04430F08010900F28E0540366
:1022EB00C454F0FA900F13E04AF07400900F14F0FE
:1022FB00900F2DE0C394044009900F14E0440CF0B0
:10230B008011900F2DE05403333354FCFA900F14CB
:10231B00E04AF0900F2EE0C394044009900F14E0B4
:10232B004430F08010900F2EE05403C454F0FA9018
:10233B000F14E04AF0900F2FE0C394044009900F64
:10234B0014E044C0F08010900F2FE0C4333354C01E
:10235B00FA900F14E04AF07400900F15F0900F30C4
:10236B00E0F87900900F31E07B0028F8EB39F9C3E6
:10237B00E89404E99400A2D265D0334009900F157C
:10238B00E04403F08011900F31E0900F30FAE02A17
:10239B00FA900F15E04AF0900F7DE06015900F7DDD
:1023AB00E0333354FCFA900F15E04AF07400900FB1
:1023BB007DF07400900F18F07902121423D083D0A3
:1023CB00822274F51210928908C2AF900F03E012AB
:1023DB0012210007C424F12331244924C124C4242D
:1023EB00C424B724BC24740165087010122E8B8A88
:1023FB000A8B0B7902AA0AAB0B12217074026508C7
:10240B007021122E8B8A088B09AE08AF097903EE67
:10241B00FAEFFB1221707904EE2408FAEF3400FB7B
:10242B001221700224C47401900F21F0122E8B8A9A
:10243B00088B097902AA08AB09122170807B900FD7
:10244B0004E054F064A070387A01900F04E0540F4C
:10245B00F9122EE38A088B097903AA08AB0912211A
:10246B00707A02900F04E0540FF9122EE38A088B56
:10247B00097904E5082408FAE5093400FB122170F8
:10248B00900F04E054F064B0702F1230EA1230B3A6
:10249B008A088B09AE08AF097903EEFAEFFB12211C
:1024AB00707904EEFAEFFB122170800D1230EA8086
:1024BB00081230EA80031222507A0080197400C08F
:1024CB00E08A08750900E5082401F582E509340F57
:1024DB00F583D0E0F00AEAC3941040E1C208D2AF12
:1024EB007F040210F2E584FA75840075E80075BA72
:1024FB000075BCF8D2EF75D1038A8422C008C009DD
:10250B00E584FC75840089BBC2EDC2AFD2ECA2EDB1
:10251B0050FCE5BFF8E4C8F9E5BE75090048FAE5DB
:10252B000949FBD2AF8C84D009D0082274F1121068
:10253B009274F412103B851082851183EAF0A3EBA1
:10254B00F0A3ECF0A3EDF0741B121086E0FAA3E0FD
:10255B00FB741D121086E0F50CA3E0F50DE50D33B1
:10256B0095E0F50EF50F780C1205B9900FB17808C0
:10257B00120F23780C7908120B7E740412108678D4
:10258B000C120F3274FF5AF50C747F5BF50DE50DD1
:10259B003395E0F50EF50F780C1205B9900FB57861
:1025AB0008120F23780C7908120B7E740812108610
:1025BB00780C120F328510828511837808120F2345
:1025CB0074047808120ED085108285118378081256
:1025DB000F3274005AF874805BF9740068700374DE
:1025EB00006960588510828511837808120F237853
:1025FB00081205B97404121086780C120F23780890
:10260B00790C1207C27408121086780C120F2378FB
:10261B0008790C120942900FB9780C120F23780825
:10262B00790C120967780812063CE4F50AF50B855C
:10263B0010828511837808120F328056851082859F
:10264B0011837808120F2378081205B9740412103D
:10265B0086780C120F237808790C1207C2740812B3
:10266B001086780C120F237808790C120967900FDB
:10267B00B9780C120F237808790C120967780812B5
:10268B00063CE4F50AF50B85108285118378081258
:10269B000F328510828511837808120F23AA08AB9D
:1026AB0009740C1210517F080210F274F712109279
:1026BB007409121086E0F8A3E0F98A828B83E05448
:1026CB0000FEA3E05410FF74006E700374006F6083
:1026DB000D8A828B83E04400F0A3E044F0F08A8201
:1026EB008B83C082C0838C828D83E024FBFEA3E0AE
:1026FB0034FFFFD083D082C3E09EA3E09FA2D265BC
:10270B00D033504288828983E0C394FCA2D265D037
:10271B003340338C828D83E0FCA3E0FD8A828B8374
:10272B00ECF0A3EDF088828983E024FFF0888289A6
:10273B0083E0C39401A2D265D03340077400888232
:10274B008983F00227D18C828D83E02405F508A3C1
:10275B00E03400F5098A828B83E0FEA3E0FFC3E53A
:10276B00089EE5099FA2D265D033504188828983A8
:10277B00E0C39405A2D265D03350328C828D83E0B6
:10278B00FCA3E0FD8A828B83ECF0A3EDF0888289B9
:10279B0083E02401F088828983E0C39400A2D26590
:1027AB00D0335022740088828983F080197400889A
:1027BB00828983F08A828B83E0F8A3E0F98C828D87
:1027CB0083E8F0A3E9F07F020210F2C082C0838A93
:1027DB00828B8374FFF0A374FFF08A828B83A3A395
:1027EB00A3A3A3A3A37400F0A37400F074008A82C4
:1027FB008B83A3A3A3A3A3A3A3A3A3F074008A8295
:10280B008B83A3A3A3A3F08A828B83A3A3A3A3A3EA
:10281B007400F0A37400F08A828B83A3A37400F07E
:10282B00A37400F0D083D0822274F11210928A0824
:10283B00EBF5093395E0F50AF50B78081205B9901D
:10284B001102780C120F237808790C1207C2750C41
:10285B0001750D007E017F007902123BDEEEFCEF6D
:10286B00FDAA0CAB0D123BEC9010F174031211F896
:10287B00123BAE7403121051900F7E74031211F8B9
:10288B00123BC67403121051901106780C120F23D1
:10289B007808790C1207274018C2F090110A780CAF
:1028AB00120F237808790C1207764005C372F0508B
:1028BB000D7CC17D0F7A817B0F123F348015780818
:1028CB001211D97CC97D0F7A817B0F123F347404AE
:1028DB001210517A817B0F123CB97F080210F274EF
:1028EB00F112109274F612103B8A08EBF50933952E
:1028FB00E0F50AF50B78081205B9901102780C1265
:10290B000F237808790C1207C27406121086780808
:10291B00120F328C08EDF5093395E0F50AF50B78BB
:10292B00081205B9901102780C120F237808790C54
:10293B001207C274021210867808120F3274061234
:10294B0010867808120F239010FA780C120F237848
:10295B0008790C1207C29010FE780C120F2378081E
:10296B00790C120967780812063C85108285118351
:10297B00E508F0A3E509F074021210867808120F2F
:10298B00239010FA780C120F237808790C1207C2D7
:10299B009010FE780C120F237808790C12096778C7
:1029AB000812063CAE08AF09750833750900022AF8
:1029BB00C4C3E5089431E5099400A2D265D0334035
:1029CB0044D2F0C3E50894C0E5099400A2D265D0C7
:1029DB00335032D382F0502D750ABE750B00780A36
:1029EB001211DD750A87750B00780A1211DD780854
:1029FB001211DDAC08AD097B007AFF7900123D485E
:102A0B007406121051C3E50894C0E5099400A2D2D4
:102A1B0065D0334044D2F0C3E5089490E5099401A6
:102A2B00A2D265D0335032D382F0502D750ABE75C9
:102A3B000B00780A1211DD750A87750B00780A12E4
:102A4B0011DD78081211DDAC08AD097B007AFF7936
:102A5B0000123D487406121051C3E5089490E50925
:102A6B009401A2D265D0334044D2F0C3E50894B2AE
:102A7B00E5099401A2D265D0335032D382F0502DA8
:102A8B00750ABE750B00780A1211DD750A87750B76
:102A9B0000780A1211DD78081211DDAC08AD097B44
:102AAB00007A0079FF123D487406121051E5082494
:102ABB0001F508E5093400F509851082851183E0DD
:102ACB002433F8A3E03400F9C3E50898E50999A28B
:102ADB00D265D03350030229BC851082851183C384
:102AEB00E09EA3E09FA2D265D0334003022B8374F8
:102AFB00332EF50874003FF5098060C3E508943167
:102B0B00E5099400A2D265D0334044D2F0C3E50866
:102B1B0094B2E5099401A2D265D0335032D382F03E
:102B2B00502D750ABE750B00780A1211DD750A87D8
:102B3B00750B00780A1211DD78081211DDAC08ADA7
:102B4B00097B007A007900123D487406121051E59A
:102B5B000824FFF508E50934FFF509851082851176
:102B6B0083E02433F8A3E03400F9C3E89508E99532
:102B7B0009A2D265D0334083740A1210517F080228
:102B8B0010F274F112109275081C7509007E017F0A
:102B9B0000750A02A90A123BDEEEFCEFFDAA08AB98
:102BAB0009123BECEEFAEFFB123C749010F7740336
:102BBB001211F8123BAE74031210517AD87B0F121C
:102BCB003CB9750A027508F475091078081211DD05
:102BDB0090110E1211F09011121211F0900FBD12F4
:102BEB0011F0900FBD780C120F23AA0CAB0DAC0E8D
:102BFB00AD0F123A65740E12105175087E75090FE0
:102C0B0078081211DD9011161211F090111A121191
:102C1B00F090111E1211F0900FBD780C120F23AA19
:102C2B000CAB0DAC0EAD0F12392D740E121051757D
:102C3B00087E75090F78081211DD9011161211F02C
:102C4B0090111A1211F090111E1211F0901122789E
:102C5B000C120F23AA0CAB0DAC0EAD0F12392D7449
:102C6B000E12105175081D7509007E037F00A90A0D
:102C7B00123BDEEEFCEFFDAA08AB09123BEC901009
:102C8B00F174031211F8123BAE7403121051900F32
:102C9B007E74031211F8123BC674031210517AD1D1
:102CAB007B0F123CB97F080210F275FFDE75FFAD8A
:102CBB0075840F122E5A122E071219FE12213D1275
:102CCB00377600000000000000000000000000004C
:102CDB0000122B8D74FF900F38F0121A021224F091
:102CEB007A9F7B0F1227D6D2AF7400900FAAF07584
:102CFB00840F74FF900F38F075840075840F790082
:102D0B00122507900F8DEAF0A3EBF07508A3750958
:102D1B000F78081211DD7CA17D0F7A8D7B0F1226A7
:102D2B00B67402121051900F8DE0F8A3E0F9900FDA
:102D3B00A6E028F0A3E039F0900FA8E02401F09072
:102D4B000FA8E064106003022DDF900FA6E0F508DA
:102D5B00A3E0F50974047808121019900FA4E50884
:102D6B00F0A3E509F09011281211F490112A121119
:102D7B00F4900FA6E0F508A3E0F509AA08AB09E467
:102D8B00FCFD1225377404121051900F9FEAF0A32B
:102D9B00EBF0900FA67400F0A37400F07400900F8A
:102DAB00A8F0A2C8502E900F9FE0FAA3E0FB1228C8
:102DBB0034900F8BE0FCA3E0FD900F9FE0FAA3E0B3
:102DCB00FB1228EA900F9FE0F8A3E0F9900F8BE835
:102DDB00F0A3E9F0900F38E0D2E0F0A208501A907F
:102DEB000F38E0D2E2F0900FAAE0700D790190114C
:102DFB0026E0FAA3E0FB1223CD022CFAC082C0839B
:102E0B00E584FA75840F7409901168F075E1027509
:102E1B00E20075E34075E48075A4BE7580FF75A56F
:102E2B00FF7590FF75A6BF75A07F75A7E075B0FF06
:102E3B00759CC075C8FF759DFF75D8FF759EFF7596
:102E4B00E8FF759FFF75F8FF8A84D083D08222E557
:102E5B0084FA75840F758C67780079008008E824F4
:102E6B0001F8E93400F9C3E894FFE99400A2D265B4
:102E7B00D03340EAE58CA2E750FA4397018A8422CB
:102E8B0074F71210927400900F91F0900F91E090E4
:102E9B000F91F0900F9FE0F508A3E0F50974087807
:102EAB0008121009E508540FFA900F91E04AF090C0
:102EBB000F9FE0900F92F07400900F93F0740090BE
:102ECB000F94F07400900F95F07400900F96F07AB9
:102EDB008F7B0F7F020210F2C082C08374016A6085
:102EEB0003022FCF7400900F91F07402900F91F0AA
:102EFB00E91212210103AA300B2F432F712F9F2FA1
:102F0B007400900F92F0900F92E044D0F0900F92DB
:102F1B00E0D2E0F0900FA4A3E0F9E9540F900F93E7
:102F2B00F0900FA4E0900F94F07400900F95F07454
:102F3B0000900F96F00230AA7400900F92F0900F51
:102F4B0092E044E0F0900F92E0D2E1F07400900F29
:102F5B0093F07400900F94F07400900F95F0740040
:102F6B00900F96F0805B7400900F92F0900F92E0B0
:102F7B0044F0F0900F92E04403F07400900F93F044
:102F8B007400900F94F07400900F95F07400900FF4
:102F9B0096F0802D7400900F92F0900F92E044C049
:102FAB00F0900F92E0900F92F07400900F93F074EA
:102FBB0000900F94F07400900F95F07400900F96A2
:102FCB00F00230AA74026A60030230AA7400900FF8
:102FDB0099F07402900F99F0E91212210103AA30B3
:102FEB00F32F223050307E307400900F9AF0900FF8
:102FFB009AE04450F0900F9AE04409F07400900F5F
:10300B009BF07400900F9CF07400900F9DF0740077
:10301B00900F9EF00230AA7400900F9AF0900F9AC6
:10302B00E04460F0900F9AE0440AF07400900F9B1C
:10303B00F07400900F9CF07400900F9DF074009052
:10304B000F9EF0805A7400900F9AF0900F9AE04404
:10305B0070F0900F9AE0440BF07400900F9BF0749B
:10306B0000900F9CF07400900F9DF07400900F9ED9
:10307B00F0802C7400900F9AF0900F9AE0D2E6F04B
:10308B00900F9AE0D2E3F07400900F9BF0740090D5
:10309B000F9CF07400900F9DF07400900F9EF07ACF
:1030AB008F7B0FD083D08222C082C0837400900F9D
:1030BB0091F07402900F91F07400900F92F07400E5
:1030CB00900F93F07400900F94F07400900F95F0A4
:1030DB007400900F96F07A8F7B0FD083D08222747E
:1030EB00F8121092900F04E0F8740F58121221008E
:1030FB000FDD341E3157319031C93102323B3274FE
:10310B0032AD32E6321F3358339133CA3303343C7A
:10311B00347434900F05E0F8E4C8F9900F06E07BA7
:10312B000048F8EB49F9901144E8F0A3E9F0900F4F
:10313B0007E0F8E4C8F9900F08E07B0048F8EB498A
:10314B00F9901146E8F0A3E9F00234DD900F05E0A9
:10315B00F8E4C8F9900F06E07B0048F8EB49F990CA
:10316B001138E8F0A3E9F0900F07E0F8E4C8F99004
:10317B000F08E07B0048F8EB49F990113AE8F0A30F
:10318B00E9F00234DD900F05E0F8E4C8F9900F0682
:10319B00E07B0048F8EB49F990113CE8F0A3E9F02B
:1031AB00900F07E0F8E4C8F9900F08E07B0048F8AF
:1031BB00EB49F990113EE8F0A3E9F00234DD900FF2
:1031CB0005E0F8E4C8F9900F06E07B0048F8EB49FE
:1031DB00F9901140E8F0A3E9F0900F07E0F8E4C88C
:1031EB00F9900F08E07B0048F8EB49F9901142E8A1
:1031FB00F0A3E9F00234DD900F05E0F8E4C8F99094
:10320B000F06E07B0048F8EB49F9901154E8F0A366
:10321B00E9F0900F07E0F8E4C8F9900F08E07B00A5
:10322B0048F8EB49F9901156E8F0A3E9F00234DDC8
:10323B00900F05E0F8E4C8F9900F06E07B0048F822
:10324B00EB49F9901148E8F0A3E9F0900F07E0F88B
:10325B00E4C8F9900F08E07B0048F8EB49F99011AE
:10326B004AE8F0A3E9F00234DD900F05E0F8E4C87A
:10327B00F9900F06E07B0048F8EB49F990114CE808
:10328B00F0A3E9F0900F07E0F8E4C8F9900F08E01D
:10329B007B0048F8EB49F990114EE8F0A3E9F002F6
:1032AB0034DD900F05E0F8E4C8F9900F06E07B00E1
:1032BB0048F8EB49F9901150E8F0A3E9F0900F07AB
:1032CB00E0F8E4C8F9900F08E07B0048F8EB49F907
:1032DB00901152E8F0A3E9F00234DD900F05E0F80D
:1032EB00E4C8F9900F06E07B0048F8EB49F9901120
:1032FB0064E8F0A3E9F0900F07E0F8E4C8F9900F49
:10330B0008E07B0048F8EB49F9901166E8F0A3E977
:10331B00F00234DD900F05E0F8E4C8F9900F06E0F9
:10332B007B0048F8EB49F9901158E8F0A3E9F090CD
:10333B000F07E0F8E4C8F9900F08E07B0048F8EBC2
:10334B0049F990115AE8F0A3E9F00234DD900F052A
:10335B00E0F8E4C8F9900F06E07B0048F8EB49F978
:10336B0090115CE8F0A3E9F0900F07E0F8E4C8F9DE
:10337B00900F08E07B0048F8EB49F990115EE8F0FC
:10338B00A3E9F00234DD900F05E0F8E4C8F9900FE3
:10339B0006E07B0048F8EB49F9901160E8F0A3E9EF
:1033AB00F0900F07E0F8E4C8F9900F08E07B0048B5
:1033BB00F8EB49F9901162E8F0A3E9F00234DD90E3
:1033CB000F05E0F8E4C8F9900F06E07B0048F8EB36
:1033DB0049F9901134E8F0A3E9F0900F07E0F8E415
:1033EB00C8F9900F08E07B0048F8EB49F9901136CB
:1033FB00E8F0A3E9F00234DD900F05E0F8E4C8F93A
:10340B00900F06E07B0048F8EB49F9901128E8F0A3
:10341B00A3E9F0900F07E0F8E4C8F9900F08E07B00
:10342B000048F8EB49F990112AE8F0A3E9F00234CF
:10343B00DD900F05E0F8E4C8F9900F06E07B00483B
:10344B00F8EB49F990112CE8F0A3E9F0900F07E0A5
:10345B00F8E4C8F9900F08E07B0048F8EB49F990C5
:10346B00112EE8F0A3E9F08069900F05E0F8E4C8AD
:10347B00F9900F06E07B0048F8EB49F9901130E822
:10348B00F0A3E9F0900F07E0F8E4C8F9900F08E01B
:10349B007B0048F8EB49F9901132E8F0A3E9F07999
:1034AB0003E9FE1230B3EEF91221707904E9FE1232
:1034BB0030B3EEF9122170121E964010900F04E0FB
:1034CB00900F7DF07401900FA9F080067400900F9F
:1034DB00A9F07F010210F274F11210928A088B0985
:1034EB008C0A8D0B900FBD780C120F238008901156
:1034FB001A780C120EFD7808790C1205A940EF7F93
:10350B00080210F274F31210928A0C8B0D8C0A8D38
:10351B000B740D121086E0FEA3E0FF740F121086E1
:10352B00E0F508A3E0F509792A123E27A90D123E12
:10353B0036A90C123E36A90B123E36A90A123E369C
:10354B00792B123E27EFF9E9F9123E36EEF9123ECE
:10355B0036A909123E36A908123E367F060210F232
:10356B0074F112109274FC12103B890C9013B7E09B
:10357B00F87900E875F006A4C8AAF075F000A42A43
:10358B00FA75F006E9A42AF99013B7E0FA7B00EA82
:10359B0075F008A4CAACF075F000A42CFC75F0080B
:1035AB00EBA42CFBC3E50C92E7F50CE50CC39420C4
:1035BB005005750C00800674E0250CF50C9013AFCC
:1035CB00E028F8A3E039F974FF28F50874FF39F502
:1035DB000978081211DD9013AF1211F49013ADE0BE
:1035EB002AF8A3E03BF974FF28FC74FF39FD901314
:1035FB00ADE0FAA3E0FB12350F7404121051792CD5
:10360B00123E277E007F008008EE2401FEEF34007F
:10361B00FFC3EE9408EF9400A2D265D033400302AF
:10362B00376C74021210867400F0A37400F0800ED5
:10363B007402121086E02401F0A3E03400F074024F
:10364B00121086C082C0839013B7E0F87900D08344
:10365B00D082C3E098A3E099A2D265D03350AA855B
:10366B0010828511837400F0A37400F0800F851015
:10367B0082851183E02401F0A3E03400F0851082F1
:10368B00851183C3E09406A3E09400A2D265D033E6
:10369B00509E851082851183A80C7900E875F00681
:1036AB00A4C8AAF075F000A42AFA75F006E9A42ABA
:1036BB00F9E8246BF8E93411F9E028F8A3E039F9BB
:1036CB0088828983E0FA7B00750801750900EE7822
:1036DB0008121028E5085AF8E5095BF9E93395E07B
:1036EB00FAFB880889098A0A8B0B750E00750F0087
:1036FB0080149013B6E0F9123E36E50E2401F50E58
:10370B00E50F3400F50F9013B7E0F87900C3E50E21
:10371B0098E50F99A2D265D0334003023679900F0A
:10372B00BD780812056A60079013B1E0F980059027
:10373B0013B4E0F9123E36900FBD780812056A609B
:10374B00079013B2E0F980059013B5E0F9123E36FD
:10375B00900FBD780812056A60989013B3E0F9805A
:10376B009674041210517F080210F274F512109225
:10377B00C2839013B87808120F23AA08AB09AC0ABE
:10378B00AD0B1234E2D2839013B87808120F23AA30
:10379B0008AB09AC0AAD0B1234E27901123E27904B
:1037AB0013B87808120F23AA08AB09AC0AAD0B1299
:1037BB0034E29013B87808120F23AA08AB09AC0AAD
:1037CB00AD0B1234E279E0123E277903123E3690AC
:1037DB0013B87808120F23AA08AB09AC0AAD0B1269
:1037EB0034E279B0123E277920123E367980123EB0
:1037FB00367901123E3679DF123E367900123E36AB
:10380B0079FF123E367900123E3679F0123E277957
:10381B0000123E367936123E277960123E36790B0E
:10382B00123E277940123E36790D123E2779A012AF
:10383B003E3679E2123E27791D123E367902123E50
:10384B00367954123E3679E6123E277901123E360E
:10385B007999123E36799A123E3679B4123E27790F
:10386B0004123E367913123E367900123E36792B0E
:10387B00123E367905123E367900123E3679001229
:10388B003E367900123E3679B6123E277901123E4A
:10389B00367924123E367900123E367910123E36B6
:1038AB007908123E367900123E367900123E36798F
:1038BB002A123E277900123E367900123E367901E4
:1038CB00123E3679DF123E36792B123E27790012E3
:1038DB003E367900123E367900123E36797F123E23
:1038EB00361239277508C875090078081211DD756D
:1038FB00084475090078081211DD7508E075090197
:10390B0078081211DD7C007D007B007A00790012B3
:10391B003D4874061210517F040210F27929123EB1
:10392B00272274F112109274FC12103B85108285C1
:10393B001183EAF0A3EBF0A3ECF0A3EDF0741F12EC
:10394B001086E0FEA3E0FF74171210867808120FA2
:10395B0023741B121086780C120F237808790C1223
:10396B000D64900FBD780812056A7003023A5B7400
:10397B0013121086780C120F23C00CC00D741B127F
:10398B001086780C120F23D00FD00EE50C250EF8F5
:10399B00E50D350FF9744328F50C740039F50D78E6
:1039AB000C1211DD7415121086780C120F2374444F
:1039BB00250CF50C7400350DF50D780C1211DD741A
:1039CB0004121086780C120F23C00CC00D741B123E
:1039DB001086780C120F23D00FD00EE50C250EF8A5
:1039EB00E50D350FF974FF28FC74FF39FD740412D3
:1039FB001086780C120F23AA0CAB0D12350F740422
:103A0B00121051792C123E278E828F83E0F9123ED1
:103A1B00368E828F83A3E0F9123E368E828F83A37C
:103A2B00A3E0F9123E369013BC7808120EFD850800
:103A3B000C85090D850A0E850B0F850C08850D0964
:103A4B00850E0A850F0B900FBD780C12056A70B8A6
:103A5B0074041210517F080210F274F11210927458
:103A6B00FC12103B851082851183EAF0A3EBF0A3C7
:103A7B00ECF0A3EDF07413121086780C120F237474
:103A8B001F121086E0FEA3E0FF8E088F0978081244
:103A9B0011DD90111A1211F0741D1210861211F013
:103AAB00780C1211D9740E1210867808120F23AAF3
:103ABB0008AB09AC0AAD0B12392D740E1210518ED6
:103ACB00088F0978081211DD90111A1211F0741D6C
:103ADB001210861211F0850C08850D09850E0A85CA
:103AEB000F0B74251210867808120EFD9013BC78FC
:103AFB0008120EFD78081211D9740E121086780870
:103B0B00120F23AA08AB09AC0AAD0B12392D740E98
:103B1B001210518E088F0978081211DD741D1210C6
:103B2B00861211F090111A1211F0780C1211D9742F
:103B3B000E1210867808120F23AA08AB09AC0AAD37
:103B4B000B12392D740E1210518E088F0978081232
:103B5B0011DD741D1210861211F090111A1211F052
:103B6B00780C1211D9740E121086C082C083742582
:103B7B001210867808120F23D083D0827808120E89
:103B8B00FD9013BC7808120EFDAA08AB09AC0AAD68
:103B9B000B12392D740E12105174041210517F0830
:103BAB000210F2C082C0838510828511837CB17DA7
:103BBB00137403120F4ED083D08222C082C0838530
:103BCB0010828511837CB47D137403120F4ED08346
:103BDB00D08222C082C083E99013B7F0D083D08209
:103BEB002274F71210929013B7E0F508750900EAEA
:103BFB008508F0A4CAAEF08509F0A42EFE8508F066
:103C0B00EBA42EFBEA75F008A4CAAEF075F000A485
:103C1B002EFE75F008EBA42EFB9013ADEAF0A3EB90
:103C2B00F09013B7E0F508750900EC8508F0A4CC0B
:103C3B00AAF08509F0A42AFA8508F0EDA42AFDEC78
:103C4B0075F006A4CCAAF075F000A42AFA75F0065C
:103C5B00EDA42AFD74442CF874003DF99013AFE8E1
:103C6B00F0A3E9F07F020210F274F7121092901396
:103C7B00B7E0F508750900EA8508F0A4CAACF08531
:103C8B0009F0A42CFC8508F0EBA42CFBEA75F006DC
:103C9B00A4CAACF075F000A42CFC75F006EBA42CB8
:103CAB00FB9013ABEAF0A3EBF07F020210F274F877
:103CBB00121092EAFEEBFF802912356B9013B7E0DE
:103CCB00F87900E875F006A4C8AAF075F000A42AEC
:103CDB00FA75F006E9A42AF99013AFE028F0A3E0F7
:103CEB0039F08E828F83E0FA8E828F83A3AE82AF00
:103CFB0083EAF9EA6042740A6970BE9013B7E0F880
:103D0B007900E875F008A4C8AAF075F000A42AFAA7
:103D1B0075F008E9A42AF99013ADC3E098F0A3E07D
:103D2B0099F09013ABE02444F8A3E03400F990131E
:103D3B00AFE8F0A3E9F080AA7F010210F274F2124F
:103D4B00109274FC12103B890E8A0D8B0CECFEED5D
:103D5B00FF7414121086E0F50AA3E0F50B7416122B
:103D6B001086E0F508A3E0F50978081211DD780A52
:103D7B001211DD7416121086E0FCA3E0FDEEFAEFD3
:103D8B00FB12350F7404121051792C123E2774025A
:103D9B001210867400F0A37400F0804BA90E123E33
:103DAB0036A90D123E36A90C123E368510828511AE
:103DBB0083E02401F0A3E03400F07412121086E0CB
:103DCB00C39EFAA3E09FFB851082851183E0F8A3C5
:103DDB00E0F9C3EA98EB9950C37402121086E02401
:103DEB0001F0A3E03400F0E508C3950AFAE5099564
:103DFB000BFB7402121086E0F8A3E0F9C3EA98EB10
:103E0B0099400F8510828511837400F0A37400F024
:103E1B0080A874041210517F070210F2D2CEC28414
:103E2B00C2CFC28589F8D285D2CF22D2CED284C25C
:103E3B00CFC28589F8D285D2CF2274F71210927433
:103E4B00FC12103BEAFEEBFF8C088D09740D12106F
:103E5B0086E0FCA3E0FDEEF8EFF9AA08AB09120F20
:103E6B00A8851082851183123EADE0F88508F0A479
:103E7B00C8AAF08509F0A42AFA8508F0E9A42AF962
:103E8B00EEC398F8EF99F97402121086123EADEC5E
:103E9B00FAEDFB7404120F4E74041210517F0202E0
:103EAB0010F2E8F0A3E9F08510828511832212004D
:103EBB009E22C082C083851082851183E0F8A3E027
:103ECB00F98A828B838009A3E824FF18E934FFF970
:103EDB00E87001E9600AE06C70EDAA82AB838004A4
:103EEB007A007B00D083D0822274F812109274086F
:103EFB00121086E0FEA3E0FFEAF8EBF980208C823B
:103F0B008D83E088828983F0A3A882A9838C828D1C
:103F1B0083A3AC82AD83EE24FF1EEF34FFFFEE7064
:103F2B0001EF70DA7F010210F274F712109274FC39
:103F3B0012103BEAFEEBFF740D121086A882A983C8
:103F4B007402121086E8F0A3E9F0851082851183C4
:103F5B00EEF0A3EFF07402121086858208858309B8
:103F6B0078081211DD8C088D0978081211DD7404A4
:103F7B00121086AC82AD837A1B7B6112427F740474
:103F8B001210518A08851082E0FAA3E0F5838A8229
:103F9B00E4F0C3EB9400A2D265D0335004AA08809E
:103FAB0012851082851183E0F8A3E0F9E8C39EFA2D
:103FBB00E99FFB74041210517F020210F2C082C001
:103FCB00838005A3AA82AB838A828B83E0FDEC6D91
:103FDB006007ED70EE7A007B00D083D08222C08226
:103FEB00C0838A828B838001A3E070FCE582C39A35
:103FFB00FAE5839BFBD083D0822274F1121092EAF4
:10400B00FEEBFFEE2402F50CEF3400F50D850C8270
:10401B00F583A3E05480F50B7C017D0012412D85C7
:10402B000C82850D83E07001E470708E828F83E0CB
:10403B00F8A3E0F9E87001E97003024117850C82DF
:10404B00850D83E8F0A3E9F08E828F83E4F0A3F073
:10405B007CF11D80468E828F83E0FAA3E0FBE50E98
:10406B00C333F50EE50F33F50F8A088B09740F7800
:10407B0008121019E508450E850C82850D83F0A3F7
:10408B00E50FF0EAC333FAEB33FB8E828F83EAF052
:10409B00A3EBF0EC24FF1CED34FFFD850C82850DAA
:1040AB0083E0F50EA3E0F50FC3E50E9480E50F94C6
:1040BB000040A2850C82850D83E0FAA3E0FBC3943C
:1040CB000140468E828F83E0F50EA3E0C313F50FFC
:1040DB00E50E13F50E8A088B09740F780812102859
:1040EB00E509450FF98E828F83E50EF0A3E9F0EB1E
:1040FB00C313FBEA13850C82850D83F0A3EBF0EC65
:10410B0024010CED3400FD80AA12412D850C828513
:10411B000D83E0F0A3E0450BF0ECFAEDFB7F08021A
:10412B0010F2850C82850D83E0547FF0A3E05400E0
:10413B00F02274F112109274FE12103B85108285DE
:10414B001183EAF0A3EBF074111210867808120FAA
:10415B0023851082851183E02402FEA3E03400FF47
:10416B008E828F83E05480F50CA3E0547FF50D74A1
:10417B0007780C121019A80CF974FF687001E47021
:10418B00148E828F83E0547F60047A0280027A015E
:10419B007B00024266E87001E47021851082851174
:1041AB0083E0FA124005EAF8EBF9C3EA9401EB94C9
:1041BB0000A2D265D03340047A0080D4880CE9F594
:1041CB000D3395E0F50EF50F7808790C120EEA9089
:1041DB0013C0780C120F23780C790812057F402E30
:1041EB008E828F83A3E05480F9E47001E99014155B
:1041FB007808600B120F23E50BB2E7F50B80031267
:10420B000F231242707808120F327A0180829011BC
:10421B001A780C120F23780C790812057F8E828F77
:10422B0083E04026547FFAA3E05480FB74077808A0
:10423B00121028E5084AF8E5094BF98E828F83E8BE
:10424B00F0A3E9F07AFF7BFF80115400F0A3E05458
:10425B0080F0124270E4F0A3F0FAFB7402121051DA
:10426B007F080210F2851082851183E0F8A3E0F538
:10427B008388822274F112109274A312103B74047F
:10428B0012108612502274061210861258FF7418E0
:10429B00121086E4F0A3800F746C121086124B5030
:1042AB00121086E8F0A3E9F0746C121086124F63BB
:1042BB00F9700D7418121086125876745D02583707
:1042CB007425697038740C121086E4F0A3F0740E28
:1042DB00121086E4F0A3F07410121086E4F0A3F031
:1042EB007412121086E4F0A3F07414121086E4F02A
:1042FB00A3F07416121086E4F0A3F08018851082D8
:10430B00851183AA82AB83126059508C7AFF7BFF95
:10431B0080A9740148F8746C121086124BA312100A
:10432B0086125022746C121086125EAEFA1212575D
:10433B000005201D432356432B4E432D5243305A29
:10434B00435E43740280CD740480C9740880C574C5
:10435B001080C1742A6A703E746E121086124B5E06
:10436B0012108612501F741C1210861258FF12580E
:10437B00645013C3E49CFAE49DFB741C1210861268
:10438B005022740448F8746C121086124BA312104E
:10439B00861250228045741C121086E4F0A38029EB
:1043AB00741C121086124B3A7003747F6B600B12E5
:1043BB004B0F741C121086125022746C1210861242
:1043CB004BA3121086EAF0A3EBF0746C121086125A
:1043DB004B414007E508C3943A40C5746C121086F4
:1043EB00125EAE642E600D741A12108674FFF0A369
:1043FB00F002448D746C121086E024010AA3E034A1
:10440B0000FB746C121086125022746C1210861200
:10441B005EAE642A7027746E121086124B5E1210F9
:10442B008612501F741A1210861258FF746C1210D9
:10443B0086124BA3121086EAF0A3EB80B3741A1208
:10444B001086E4F0A38029741A121086124B3A706E
:10445B0003747F6B600B124B0F741A121086125081
:10446B0022746C121086124BA3121086EAF0A3EB87
:10447B00F0746C121086124B414007E508C3943A56
:10448B0040C5741E121086E8124F75746C1210869C
:10449B00124F63FC7D007ADC7B13123FC8EA70017C
:1044AB00EB601F746C121086124F63FA746C12104F
:1044BB0086E0240108125E81746C121086124BFD8B
:1044CB0080027A007420121086EAF06468702274FD
:1044DB006C121086124F636468701674201210866B
:1044EB007462F0746C121086124B50121086124BC1
:1044FB00FD7421121086A882A983740A12108612E9
:10450B004BFD746C121086124F63FC12125702454E
:10451B00475847656758470C415847589E4661585E
:10452B0047634945649A45699A456E21486F9E4693
:10453B0070B04873ED48759E46789E466C49740C76
:10454B0012108612587674012AF8E43BF9740C1297
:10455B001086124BFD746E121086125EDC888289F7
:10456B0083E0FCE824020808E93400F9746E1210A9
:10457B0086E0FDA3E0F5838D82124BFD74211210B2
:10458B0086E5822AF582E5833BF583EC0249947438
:10459B0020121086E0FA746C6A701E746E1210860C
:1045AB001258DB120F23746E121086124BCE1210A0
:1045BB0086125E9D124BFD8025746A6A60DD746EF7
:1045CB00121086124BBE121086124B9812108612C6
:1045DB005E9D124BFDE5093395E0F50AF50BE509F8
:1045EB003395E0FB7420121086E0FA74686A601C45
:1045FB0074626A700DE5083395E0F509F50AF50B61
:10460B00800E74746A6005747A6A70048B0A8B0B63
:10461B00900FBD780C120F23780C790812057F5080
:10462B0010740C121086124BAF121086124B0980AD
:10463B002E741E121086E0F854026010740C1210C7
:10464B0086124BAF121086124B038013E8A2E05078
:10465B0017740C121086124BAF121086124AFDF013
:10466B00740C121086126005740C121086124BAF6C
:10467B00121086124AF2121086124F7A7808120F15
:10468B0032ECF9851082851183AA82AB83124C66BA
:10469B000249957420121086E0FA746C6A701B74D0
:1046AB006E121086124B4A120F23746E1210861262
:1046BB004BCE121086124BEA801E74716A60E07446
:1046CB006A6A60DB746E121086124BBE1210861271
:1046DB004B98121086124BE07420121086E0FA747D
:1046EB00686A601474626A7005750900800A7474D4
:1046FB006A6005747A6A7006750A00750B00741E81
:10470B00121086E054087003024673900FBD7808B0
:10471B0012056A700302467374204C6478600302BE
:10472B004673740C121086124BAF1210861258522D
:10473B007430F0740C121086126005740C12108613
:10474B00124BAF121086125852EC02466A742012AA
:10475B001086E0644C701E746E1210861258DB12B9
:10476B000F23746E121086124BCE121086125E9DA2
:10477B00124BFD8019746E121086124B4A120F23C6
:10478B00746E121086124BCE121086124BEA8510E5
:10479B00828511837808120F327402121086A3E0FF
:1047AB005480F9E47001E96010740C121086124BFE
:1047BB00AF121086124B09802E741E121086E0F871
:1047CB0054026010740C121086124BAF121086122A
:1047DB004B038013E8A2E05017740C121086124B97
:1047EB00AF121086124AFDF0740C1210861260057F
:1047FB00740C121086124BAF121086124AF2121062
:10480B0086124BFDECF9851082851183AA82AB834E
:10481B001250280249957420121086E0121257008C
:10482B0006624048688B486A5F486C5F48748B48E7
:10483B007A8B488B48746E121086124BB512108609
:10484B00124B8E121086124BD5121086E08882897D
:10485B0083024994746E121086124BB51210861295
:10486B004B8E121086124BD5121086124F57339562
:10487B00E0FE888289831258FFA3EEF0A3024994CD
:10488B00746E121086124BB5121086124B8E1210CC
:10489B0086124BD512108612587688828983EAF0DD
:1048AB00A3EB024994746E121086124BBE12108643
:1048BB00124B98121086124BE07421121086A882AC
:1048CB00A9837408121086124BFD9013F578081209
:1048DB000F108510828511837808120F32797802B8
:1048EB00468E746E121086125EDCE8FCE9FD1258DF
:1048FB0072EAF8EBF9EC24020C0CED3400FD746E4B
:10490B001210861258FC7408121086124BFD741A82
:10491B00121086125E70125865500D123FE98A080C
:10492B008B09A808A909802E78081211DD7C007D5F
:10493B0000123EBD7402121051EA7001EB600D744F
:10494B0008121086124B2FF8EB998009741A12106B
:10495B0086E0F8A3E0F9740E121086E8F0A3E98064
:10496B0028740C121086124F48740128FAE439FB94
:10497B00740C121086125022EC6003FA80027A2516
:10498B007421121086125852EAF0746C12108612AF
:10499B004B50121086124BFD741C121086C082C035
:1049AB0083740C121086124F48D083D08212586930
:1049BB007412121086124B56740E121086124B562E
:1049CB007414121086124B567410121086124B561A
:1049DB007416121086124B2FFEEB99FF741E1210D9
:1049EB0086E05404701C7920EEFCEFFD8510828567
:1049FB001183AA82AB83124C03EA7001EB700302A2
:104A0B004317740C1210861211F47423121086AC17
:104A1B0082AD837402121086124AE8121051EA70AA
:104A2B0001EB600302431779307412121086124B9C
:104A3B007A7001EB7003024317740E121086121179
:104A4B00F4740A121086124F577402121086124A0F
:104A5B00E8121051EA7001EB6003024317793074CE
:104A6B0014121086124B7A7001EB70030243177409
:104A7B00101210861211F47410121086124F487413
:104A8B000A121086E028FCA3E039FD74021210868E
:104A9B00124AE8121051EA7001EB600302431779D6
:104AAB00307416121086124B7A7001EB70030243AE
:104ABB0017741E121086E0540470030242B379205F
:104ACB00EEFCEFFD851082851183AA82AB83124C1D
:104ADB0003EA7001EB60030242B3024317AA82ABF5
:104AEB008312600F740222E58228F8E58339F9748A
:104AFB000822125856742022125856742B22125820
:104B0B0056742D22EA75F00AA4FAACF075F00AEB94
:104B1B00A42CFBEA2508FAEB3400FB74D02AFA74B8
:104B2B00FF3BFB22124B3322125EE7EAC3982212A1
:104B3B005E9774FF6A22125EB2F508C3943022129C
:104B4B004BC7780C221258BA746C22124B33FAEB07
:104B5B0099FB22125EB2FAA3E0FB8A828B83E0FC04
:104B6B00A3E0FDEA24020A0AEB3400FB746E22E098
:104B7B00FCA3E0FD851082851183AA82AB83124CC6
:104B8B0003EA22125EB22402FAA3E080DC125F2455
:104B9B0024021258BD746E22E02401FAA3E0340003
:104BAB00FB746C22125EE7742122125ECB125EE064
:104BBB00746E22124BC7125E75746E22125ECF1288
:104BCB005ECF22125F24240480C812587FEAF0A320
:104BDB00EBF0741822124BFA750A00750B002212B7
:104BEB004BFA850C08850D09850E0A850F0B2212D1
:104BFB005EA5E8F0A3E9F02274F312109274FF1291
:104C0B00103BE9851082851183F08A0A8B0B8C0887
:104C1B008D097E007F00800312591FC3EE9508EFAC
:104C2B00125E6C5028750C01750D00780C1211DD9D
:104C3B007402121086AC82AD83AA0AAB0B124AEC3B
:104C4B00121051EA7001EB60CF7A0080027A017B7F
:104C5B000074011210517F060210F274F1121092BF
:104C6B0074EF12103B7403121086125022E9851058
:104C7B0082851183F07403121086125EC7A3A3A35F
:104C8B00A3A3A3A3A3A3A31258B0121086124F7A07
:104C9B00E0646F7009740512108674088017E04485
:104CAB0020647860097405121086740A80077405F5
:104CBB001210867410124F757401121086743C1208
:104CCB004F7574031210861258DE120F23740912DB
:104CDB0010867808120F32851082851183E0646488
:104CEB006005E06469702A900FBD780C120F237871
:104CFB000C790812057F5019740912108678081266
:104D0B000F237808120EBF74091210867808120F41
:104D1B003274031210861258A9740F121086124B9C
:104D2B00FD74031210861258A2740D121086124BCA
:104D3B00FD7409121086C082C083900FBD780812D3
:104D4B000F23D083D082780812056A7011740D126C
:104D5B001086124F637002A3E07003024E0D7401B4
:104D6B00121086E024FFFAA3E034FFFB740112104B
:104D7B00861250227409121086780C120F237405B8
:104D8B00121086124F67120DE4E5082430FCC39411
:104D9B003A400B851082851183E024AF2CFC7407FD
:104DAB00121086E02AFAA3E03BFBEC8A828B83F09D
:104DBB007409121086780C120F23740512108612C8
:104DCB004F67120DE47409121086780C120F3274AF
:104DDB0009121086C082C083900FBD7808120F2372
:104DEB00D083D082780812056A6017740F12108670
:104DFB00125EC7EAF8EBF9C3E098A3E099500302FF
:104E0B004D697403121086125E7DE8FAE9FB740596
:104E1B00121086E064087002A3E070358A828B83DF
:104E2B00E05408602C74011210861258B0121086D0
:104E3B00124F4CE0643060197401121086124F8AC5
:104E4B0074011210861258B0121086124F4C743027
:104E5B00F07401121086124F48743CC398F8E49911
:104E6B00F97403121086E0240EFCA3E03400FD8CD1
:104E7B00828D83124BFD7401121086124F577407EB
:104E8B00121086E02CFCA3E03DFD740F121086126D
:104E9B0058FC740D12108612587AFEA3E0FF7403AF
:104EAB00121086E02412FCA3E03400FDC3E89EE957
:104EBB0012584E501AEEC398F8EF99F98C828D83E5
:104ECB00124BFD8A828B83E054EFF0A3E08068C322
:104EDB00EF12586550628A828B83E0541464107011
:104EEB00577403121086E0241C125E8CC082C083A0
:104EFB007403121086E0240C125E85D083D082E0FE
:104F0B00C39AFEA3E09BFF125872EEC39AFAEF9B73
:104F1B00FBEAC398F8EB99F97401121086124BFD5A
:104F2B0074011210861258C4400E7401121086E0E0
:104F3B008C828D83F0A3E9F07411025837125EE76F
:104F4B0022E028FCA3E0398C82F58322E0FCA3E06D
:104F5B00FD22851082851183125F242212583F781F
:104F6B000C7908228C828D837403F0A3E4F0221257
:104F7B004F7E22E8F0A3E9F085108285118322E0B1
:104F8B0024FFF0A3E034FFF02274F112109274FCB2
:104F9B0012103B851082851183125022A31258FFE9
:104FAB0074131210861258769013F9780C120F2383
:104FBB008044EAA2E0501D85108285118378081287
:104FCB000F237808790C1207C2851082851183781C
:104FDB0008120F328A088B0974017808121009AA7B
:104FEB0008AB09850C08850D09850E0A850F0B7812
:104FFB000C79081207C2EA7001EB70B68510828536
:10500B0011837808120F23AA08AB09AC0AAD0B74F5
:10501B0004025837125905EAF0A3EBF02274F1128F
:10502B00109274C012103B740C1210861250227422
:10503B0002121086E9F07418121086A882A9831246
:10504B0058F3740C1210861258DE120F23740612CA
:10505B0010867808120F32740C1210861258A27434
:10506B000A121086125F5F121086E04420C0E074B3
:10507B0003121086D0E0F064616033740A1210865C
:10508B001258CE500C740A121086125EC77406802A
:10509B001AE87001E970177403121086E0646770E8
:1050AB000D740A121086125EC77401124F75740CC0
:1050BB00121086124F577404121086AA82AB8312F9
:1050CB0060628A088B09AE08AF09740C121086E077
:1050DB00240E125E80E8FCE9FD740C121086125847
:1050EB00A9E8FAE9FB740265087001EF7036124FFC
:1050FB006F7402121086E0C39461400CE0C3947B82
:10510B0050067CE37D1380047CE77D1375080375E3
:10511B00090078081211DD8A828B83125EFD121052
:10512B0051025835C3EE9401EF1258654020124FCF
:10513B006F7402121086E0C39461400CE0C3947B41
:10514B0050067CEB7D1380C47CEF7D1380BE740313
:10515B00121086E0646170458A828B83125EC7747D
:10516B0030F08A828B831258B688828983A3AC82F3
:10517B00AD838A828B831258FF7402121086E0640F
:10518B006170047A7880027A58EA88828983F07495
:10519B000C121086125897E02402126008EE700170
:1051AB00EF700F7E007F007404121086E4F0A302F0
:1051BB0058047419121086A882A9837416121086CB
:1051CB00124BFD7403121086E0646160030254D32A
:1051DB00740A1210861258CE50067E217F0080076B
:1051EB00740128FEE439FF74012EF8E43FF9740EC4
:1051FB00121086124BFD740C1210861258DE120F11
:10520B002374101210867808120F3274061210864F
:10521B00780C120F23900FBD7808120F23780C799E
:10522B0008120776741050101210867808120F238C
:10523B00E50BB2E7F50B80081210867808120F23E6
:10524B0074061210867808120F327404121086E05E
:10525B0024FC124F8D7418121086E4F0741912107E
:10526B0086A882A983801E24FFF8A3E034FFF912DD
:10527B005928E4F0125861851082851183E050E7BC
:10528B002407125E801258F3740E1210861258C443
:10529B0050030253A47406121086780C120F23903D
:1052AB00111A7808120F23780C790812072740037C
:1052BB000253A49013FD1211F0740A121086AA82E5
:1052CB00AB8312413D74041210517808120F2378EE
:1052DB000812063C74101210867808120F32740EE6
:1052EB00121086E024F9124F8D740E12108612588C
:1052FB00C4402A7406121086780C120F23741012F5
:10530B0010867808120F2378081205B9780C7908E3
:10531B001209427406121086780C120F3285108215
:10532B00851183E024071258ED750C07750D007479
:10533B0010121086C082C08390111A7808120F23A6
:10534B00D083D0827808120594500302527F1258F2
:10535B0061500302527F1258881258F274101210C7
:10536B00867808120F23E508540FC0E0125EC1D0F7
:10537B00E0F074101210867808120F23740478086A
:10538B00120ED07410121086E508F0A3E509F0A3F5
:10539B00E50AF0A3E50BF08096851082851183C09A
:1053AB0082C0837416121086124F48D083D082E0CD
:1053BB00C398F8A3E099F9740E121086124BFD7482
:1053CB0019121086A882A9831258F3740E12108634
:1053DB00C3E09EA3E012584E500A740E121086E0E2
:1053EB00FEA3E0FFC3EF12586550030254AD740ED9
:1053FB00121086124F48C3EE98EF99A2D265D033A4
:10540B00501A7418121086E5822EF582E5833FF54B
:10541B0083A3E0C3940840047A0F80027A00EEF86D
:10542B00EFF98008EE24FF1EEF34FFFFE824FF188E
:10543B00E934FFF97418121086125852A3E06A600F
:10544B00E3740F6A7003E004F0C3E912586550155A
:10545B007418121086A882A98312590E121086E0B6
:10546B002404126008EEF8EFF9802A85108285116A
:10547B0083E028FAA3E039FB8A828B83E02430FC9B
:10548B00C3943A400A7402121086E024C62CFCEC3A
:10549B008A828B83F0E824FF18E934FFF9125864F1
:1054AB0050C9740A121086125EC7C3A3E012586566
:1054BB00400302580574FF2EF874FF3FF9740A126B
:1054CB001086125F060258047406121086780812B2
:1054DB000F23900FBD780C120F237808790C12074D
:1054EB0076501A74061210867808120F23E50BB249
:1054FB00E7F50B74061210867808120F327404123B
:10550B00108612583F901401780C120F23780879EB
:10551B000C120D64901405780C120F237808790C7B
:10552B00120E7E7404121086E508F0A3E509F074E0
:10553B00041210861258B0C398F508E499F509C304
:10554B00E5089401E509125865403378081211DD1E
:10555B0074081210867808120F23AA08AB09AC0A3C
:10556B00AD0B124F9474021210518A088B098C0ADE
:10557B008D0B74061210867808120F32804B74064E
:10558B00121086780C120F23C3E49508F50AE495E4
:10559B0009F50B780A1211DD9014097808120F2304
:1055AB00AA08AB09AC0AAD0B124F9474021210513E
:1055BB008A088B098C0A8D0B780C7908120B7E7478
:1055CB0006121086780C120F327403121086E064E8
:1055DB0066700D7404121086E0240A125E8080043B
:1055EB0078067900740A121086125EB79013C4E025
:1055FB002404125E80125E4D5004E8FAE9FB741825
:10560B001210867430F07419121086A882A98312B6
:10561B0058F3C3EA9401EB125865500302570B740D
:10562B00061210867808120F2378081206317410B0
:10563B001210867808120F321258E4741512108665
:10564B007408F07410121086780C120F2390140D3E
:10565B007808120F23780C7908120DE474141210C9
:10566B0086E508F07410121086780C120F23901434
:10567B000D7808120F23780C7908120DE4741012B0
:10568B001086780C120F321258881258F2741412BA
:10569B001086E02430C0E0125EC1D0E0F074151229
:1056AB001086E014F0709C1258E4EA24F8FAEB34FC
:1056BB00FFFBC3EA9401EB125865500302561D74AD
:1056CB00061210867808120F237406121086780CB7
:1056DB00120F23780C120631780C1205D478087946
:1056EB000C120942901411780C120F237808790CC4
:1056FB001207C274061210867808120F3202562A4D
:10570B00851082851183C082C08374161210861295
:10571B004F48D083D0821258697419121086A88210
:10572B00A9838019EA24FF1AEB34FFFB74041210CF
:10573B0086124F8A8510828511831258B61259280A
:10574B00E0643060DF7403121086E06466700A74E4
:10575B00041210861258B6800DE06465700478014F
:10576B00800278007900740A12108612587A28FE8B
:10577B00A3E039FFC3EA9EEB12584E5004EAFEEB4E
:10578B00FFC3EF1258654072C3EE9AEF125E515091
:10579B001A851082851183E02EFAA3E03F8A82F5E9
:1057AB0083E0C3943540047C3980027C30EEFAEF01
:1057BB00FB8008EE24FF1EEF34FFFFEA24FF1AEBF9
:1057CB0034FFFB851082851183E02AF8A3E03BF9B7
:1057DB0088828983E06C60DB74396C7003E004F0C1
:1057EB00C3EB1258655013125888F912590E121048
:1057FB0086E02401F0A3E03400F07404121086124A
:10580B0011F48E088F0978081211DD7404121086BA
:10581B00124F577406121086E0F97410121086128C
:10582B005876125935740412105174401210517F6E
:10583B00080210F2E0F508A3E0F5093395E0F50A4C
:10584B00F50B229F025E4712585622E58228F582FD
:10585B00E58339F58322125E58C31258D622E0C372
:10586B0098FAA3E099FB228C828D83125E97221209
:10587B00587FE022E0FCA3E0F5838C822285108226
:10588B00851183E024FFF8A3E034FF22E0240C12FF
:10589B0058BD8882898322E0241A1258BD22E02445
:1058AB00081258BD22125EE77407221258BA22E082
:1058BB002401F8A3E03400F922C3E09401A3E01221
:1058CB0058D622125EE0C31258D6229400025E47CD
:1058DB00125ECB125ECB780822851082851183E095
:1058EB002408F8A3E03400F9851082851183024B5C
:1058FB00FD125905ECF0A3EDF022E0FEA3E0F583D9
:10590B008E8222851082851183E8F0A3E9F012596B
:10591B001F740422EE24010EEF3400FF2285108247
:10592B00851183124F7E125ECB2274F1121092748A
:10593B00E212103B7402121086125022890E8C0A4E
:10594B008D0B742D121086E0F50CA3E0F50D742F62
:10595B00121086E0FEA3E0FF74021210861258A20A
:10596B0088828983125E70E50C9401E50D125865EF
:10597B00500C750C01750D00750AF3750B13740241
:10598B00121086E02416125E80740E121086125FBF
:10599B005F121086E02410125E80740A12108612B9
:1059AB005F5F121086E02414125E8074081210865A
:1059BB00125F5F121086E0240E125E8085108285C6
:1059CB001183125F5F1210861258A974061210868B
:1059DB00125F5F121086125E7D7404121086124BDA
:1059EB00FD7420450EFA74666A602674676A60035C
:1059FB00025C0CC3EE94FCEF94FFA2D265D0335043
:105A0B0003025C17C3EE9508EF125E6C4003025C59
:105A1B001712591F74666A602B7404121086125F7A
:105A2B0048700B125E655006850C08850D09C3E5A1
:105A3B00089EF508E5099FF509125864500675088C
:105A4B00007509007406121086125F18125EEDF8CD
:105A5B00EB39F9740C121086124BFDC3EE9401EF67
:105A6B001258654003025B06740C121086125EC757
:105A7B007430125F88500A7404121086125F4860EB
:105A8B000A125EEDF582EB39125FFBC3E49EF8E47C
:105A9B009FF9C3E50898E50999A2D265D03350095F
:105AAB00C3E49508FEE49509FFC3E49EFCE49FFD67
:105ABB007408121086125EC71258FFE5082EF508FF
:105ACB00E5093FF509125E3E500685080C85090D68
:105ADB00740A121086125EC7E50CF0A3E50DF07880
:105AEB000C1211DDAC0AAD0B7402121086125F2979
:105AFB00121051125F7C740E025DBAC3E50C9EE569
:105B0B000D12584E5068780C1211DDAC0AAD0B74A7
:105B1B000E121086125EFD121051124F5D125F7342
:105B2B00EEC3950CF8EF950DF97408121086125F01
:105B3B0006125F93500A7404121086125F48601DA0
:105B4B00125F32121086125EAE28FAA3E0398A82F7
:105B5B00F583742EF0740A121086126002740E1202
:105B6B001086125EC7E508F0A3E509025DC08E0E34
